:100000000C942A000C94BC000C94E2000C9408019F
:100010000C9431020C9431020C9431020C94310294
:100020000C9431020C9431020C9431020C94310284
:100030000C9431020C9431020C9431020C94310274
:100040000C9431020C9431020C9431020C94310264
:100050000C94310211241FBECFE5D8E0DEBFCDBF26
:10006000E4E5F0E040E017C0B591A5913591259108
:10007000059107FD0CC095918591EF01F92FE82FAF
:1000800005900D92A217B307D9F7FE0104C01D9287
:10009000A217B307E1F7E435F40731F70E945400E3
:0800A0000C945200F894FFCF0C
:1000A80060E070E080E090E00E942E0160E070E087
:1000B80084E090E00E942E0161E070E082E090E030
:1000C8000E944F0161E070E087E090E00E944F01DC
:1000D80061E070E087E090E00E942E0161E070E04E
:1000E80083E090E00E94700161E070E082E090E0BF
:1000F8000E942E0184E090E00E94910184E090E04B
:100108000E94AB0184E090E00E94C501789484E0ED
:1001180090E00E94D501892B21F083E090E00E94B5
:10012800100280E090E00E94D501892B21F082E046
:1001380090E00E94050282E090E00E94E101892B94
:1001480029F082E090E00E94100208C083E090E06D
:100158000E94F90182E090E00E94ED012FEF83EC0C
:1001680099E0215080409040E1F700C00000CFCFD7
:100178001F920F920FB60F9211242F933F934F9314
:100188005F936F937F938F939F93AF93BF93EF93F7
:10019800FF9387E090E00E942602FF91EF91BF91C4
:1001A800AF919F918F917F916F915F914F913F9107
:0C01B8002F910F900FBE0F901F90189514
:1001C4001F920F920FB60F9211242F933F934F93C8
:1001D4005F936F937F938F939F93AF93BF93EF93AB
:1001E400FF9387E090E00E941B02FF91EF91BF9183
:1001F400AF919F918F917F916F915F914F913F91BB
:0C0204002F910F900FBE0F901F901895C7
:100210001F920F920FB60F9211242F933F934F937B
:100220005F936F937F938F939F93AF93BF93EF935E
:10023000FF9382E090E00E941B02FF91EF91BF913B
:10024000AF919F918F917F916F915F914F913F916E
:0C0250002F910F900FBE0F901F9018957B
:10025C006115710581F061307105D1F447B321E06E
:10026C0030E0B90102C0660F771F8A95E2F7CB0127
:10027C00842B87BB089547B321E030E0B90102C05D
:10028C00660F771F8A95E2F7CB018095842387BB95
:02029C000895C3
:10029E006115710581F061307105D1F444B321E02F
:1002AE0030E0B90102C0660F771F8A95E2F7CB01E5
:1002BE00842B84BB089544B321E030E0B90102C021
:1002CE00660F771F8A95E2F7CB018095842384BB56
:0202DE00089581
:1002E0006115710581F061307105D1F441B321E0F0
:1002F00030E0B90102C0660F771F8A95E2F7CB01A3
:10030000842B81BB089541B321E030E0B90102C0E4
:10031000660F771F8A95E2F7CB018095842381BB16
:0203200008953E
:100322008330910561F08430910569F0029771F490
:1003320085B78D7F85BF85B7816085BF07C085B7CB
:100342008C7F85BF03C085B7836085BF8BB7806410
:040352008BBF0895C0
:100356008330910561F08430910569F0029771F45C
:1003660085B7877F85BF85B7846085BF07C085B79A
:10037600837F85BF03C085B78C6085BF8BB78068D8
:040386008BBF08958C
:10038A008330910531F0049739F484B7806484BFCF
:10039A0003C084B78F7B84BF8BB780628BBF0895FD
:1003AA0026B330E0A90102C0559547958A95E2F730
:0803BA00CA0181709927089522
:1003C20020B330E0A90102C0559547958A95E2F71E
:0803D200CA018170992708950A
:1003DA0098B321E030E002C0220F331F8A95E2F77A
:0803EA002095292328BB08958A
:1003F20092B321E030E002C0220F331F8A95E2F768
:080402002095292322BB089577
:10040A0098B321E030E002C0220F331F8A95E2F749
:06041A00292B28BB089508
:1004200092B321E030E002C0220F331F8A95E2F739
:06043000292B22BB0895F8
:1004360095B321E030E002C0220F331F8A95E2F720
:06044600292725BB0895E3
:10044C0098B321E030E002C0220F331F8A95E2F707
:06045C00292728BB0895CA
:040462000C940000F6
:00000001FF
